S01500004B6579706164417474656D70742E73726563D2
S11300000C945A000C946F000C946F000C946F00C5
S11300100C946F000C946F000C946F000C946F00A0
S11300200C946F000C946F000C946F000C946F0090
S11300300C946F000C946F000C946F000C946F0080
S11300400C946F000C946F000C946F000C946F0070
S11300500C946F000C946F000C946F000C946F0060
S11300600C946F000C946F000C946F000C946F0050
S11300700C946F000C946F000C946F000C946F0040
S11300800C946F000C946F000C946F000C946F0030
S11300900C946F000C946F000C946F000C946F0020
S11300A00C946F000C946F000C946F000C946F0010
S11300B00C946F0011241FBECFEFD8E0DEBFCDBF7C
S11300C011E0A0E0B1E0EEE7F5E002C005900D928A
S11300D0A632B107D9F70E9421020C94BD020C94F8
S11300E0000095B1977F95B988231CF495B1986069
S11300F095B995B19B7F95B986FF03C095B194607E
S113010095B995B19D7F95B985FF03C095B192606E
S113011095B995B19E7F95B984FF03C085B181607F
S113012085B988B1826088B985E08A95F1F70000C5
S113013088B18D7F88B985E08A95F1F7000008952C
S1130140CF93C82F88B18E7F88B988B18D7F88B945
S11301508C2F0E9471008C2F8295807F0E947100E9
S1130160CF9108952FEF81EE94E02150804090408C
S1130170E1F700C0000088B18E7F88B988B18D7F17
S113018088B980E30E9471008FE39CE90197F1F73D
S113019000C0000080E30E9471008FE193E00197AA
S11301A0F1F700C0000080E30E94710088E20E9421
S11301B071008FE391E00197F1F700C0000088E23D
S11301C00E94A0008FE391E00197F1F700C00000C6
S11301D088E00E94A0008FE391E00197F1F700C04E
S11301E0000081E00E94A0008FE79EE30197F1F7F1
S11301F000C0000086E00E94A0008FE391E0019718
S1130200F1F700C000008EE00E94A0008FE391E0AF
S11302100197F1F700C000000895CF93C82F88B16B
S1130220816088B988B18D7F88B98C2F0E94710054
S11302308C2F8295807F0E947100CF9108950F9337
S11302401F93CF938C01C0E009C00E940D01CF5FC2
S11302508FE391E00197F1F700C00000F801EC0F83
S1130260F11D80818111F1CFCF911F910F910895DC
S1130270CF93DF9300D000D0CDB7DEB790E8998359
S113028090EC9A8394E99B8394ED9C83E62FF0E0B1
S1130290319721E030E02C0F3D1FE20FF31F9081D6
S11302A0890F81500E94A0008FE891E00197F1F737
S11302B000C000000F900F900F900F90DF91CF912E
S11302C0089561E087E00E94380180E091E00E9497
S11302D01F0161E087E00E9438010895CF938FE306
S11302E09CE90197F1F700C0000080E78BB9EFE9C2
S11302F0FFE03197F1F700C0000087E78BB989B1BF
S1130300873711F0C0E001C0C1E08FE99FE0019799
S1130310F1F700C000008BE78BB989B18B3709F482
S1130320C2E0EFE9FFE03197F1F700C000008DE78C
S11303308BB989B18D3709F4C3E08FE99FE0019748
S1130340F1F700C000008EE78BB989B18E3711F444
S11303500E946101EFE9FFE03197F1F700C000006E
S113036080EB8BB98FE39CE90197F1F700C00000A3
S113037087EB8BB989B1873B09F4C4E0EFE3FCE96F
S11303803197F1F700C000008BEB8BB989B18B3B3F
S113039009F4C5E08FE99FE00197F1F700C0000080
S11303A08DEB8BB989B18D3B09F4C6E0EFE9FFE031
S11303B03197F1F700C0000087ED8BB9EFE3FCE95A
S11303C03197F1F700C000008BB989B1873D09F47A
S11303D0C7E08FE99FE00197F1F700C000008BEDC3
S11303E08BB989B18B3D09F4C8E0EFE3FCE931979F
S11303F0F1F700C000008DED8BB989B18D3D09F492
S1130400C9E08FE99FE00197F1F700C0000080EE9A
S11304108BB9EFE3FCE93197F1F700C000008BEEF4
S11304208BB989B18B3E21F48FE091E00E941F01CA
S11304308FE39CE90197F1F700C000008C2FCF9166
S11304400895CF93DF93CDB7DEB728970FB6F8940E
S1130450DEBF0FBECDBF84B1886084B984B184602F
S113046084B984B1826084B984B1816084B987B16C
S1130470826087B987B1816087B90E94B20081E147
S113048091E00E941F0163E081E00E9438018FE344
S113049091E00197F1F700C0000088E191E00E942B
S11304A01F018FE391E00197F1F700C0000061E0C4
S11304B087E00E94380180EF8AB98FE99FE00197B5
S11304C0F1F700C000008FE08BB98FE99FE001973E
S11304D0F1F700C000000E946E01882379F04AE021
S11304E0BE016F5F7F4F90E00E948802CE010196AB
S11304F00E941F010E946E018111FCCF9FEF29EF22
S113050080E0915020408040E1F700C00000E3CF3C
S1130510BB274A3031F4992322F4BDE290958195AA
S11305209F4F0C949402BB27FB015527AA27880FE1
S1130530991FAA1FA41710F0A41B83955051B9F753
S1130540A05DAA3308F0A95DA193009779F7B111D2
S1130550B1931192CB010C94AD02DC01FC01672F25
S113056071917723E1F7329704C07C916D93708386
S11105706291AE17BF07C8F30895F894FFCF49
S113057E2020202020202020202020202020003079
S113058E004628485A293A0043757272656E7420E3
S109059E52504D3A00002A
S9030000FC
